:1008000000008431372CFF3F7E1484312000911E7C
:100810000D2C99313D218431352C901E142C9012D1
:100820009E3188268431352C911C352C9110C80AB4
:100830004808033903194918352CC919352C2300E8
:100840002018352C0C302206031D2A2C9231F72259
:100850008431352C220803192F2C2118332C923186
:100860008C228431352C883185207E1009008C3112
:10087000202C1030CA248431A93086000030870033
:10088000A0308400013085002B30D50016001A00FE
:10089000D50B462C01302300A0050130A105210015
:1008A000D9015935A33E860001308700403FD5006D
:1008B000413FD60003305602E93003195502031CAC
:1008C0006C2CE830D5000330D6005935A33E8600A5
:1008D0005508C03F5608C13FD8010E25843101306C
:1008E000870065300102031C792C0E2584316430A9
:1008F00081000430D80A5802031C6D2C5908BF3EF1
:100900001A2584315908031C8A2CBF3E86006430A6
:1009100081005908C73E1A258431031C942C5908BC
:10092000C73E8600643081000430D90A5902031C96
:10093000512C183023003B020318BB013C303C0211
:100940000318BC0118303D020318BD013C303E02C3
:100950000318BE01183043020318C3013C3044029F
:100960000318C401183045020318C5013C30460283
:100970000318C6010C3022020318A2012018080037
:10098000211CC82C2208031DC72C8F314D2F202D70
:100990008F31412FA00021302100A4002B30A50071
:1009A00022002008E32484312130860001308700B2
:1009B000A9308400003085002B30D40016001A00C6
:1009C000D40BDE2C08002100A700A801250828026E
:1009D0000318080028082407A600860001308700B5
:1009E00027082807F72484318100A80AE62CA200F2
:1009F000A0007030A101A10700252100A30008007C
:100A000021083100920021002008310091001517C3
:100A10001514000000003100130808005808D50024
:100A2000AB30D535D5355507D60059085607D70010
:100A3000860008008600013087006530010208004A
:100A40002200EB01EC01ED0120004912C02EF03034
:100A50002200CC058B3136238431FA30D900DA01FB
:100A60008B31E12384316C2D22008B31952384312D
:100A70008B31732384318B31362384318B31842342
:100A80008431E6019030E7003F30E8005030E90063
:100A9000EA01CE2E0F302200923139228431923178
:100AA00000228431923134228431923122228431E5
:100AB0009A30E6009930E7003E30E8000330EA0063
:100AC000E8306C2D22008B313C238431DE003E3037
:100AD000DF000730EA00D030E900CE2E220092314C
:100AE000532284319038CC009231142284318B31DE
:100AF000582384319D278431FA302000D700D80153
:100B0000DA2784319B2D22004C08F0390E389231BF
:100B10004D22843192311B2284318B315823843110
:100B20009D2784312000D501D6012200E0018030CC
:100B3000E1003E30E200E301E4013F30E500D52D65
:100B4000220092313E2284311038923100228431C9
:100B500003302000DC00E830DB00DA278431DD01DF
:100B60008030DE003E30DF00DD01DE013F30682DE9
:100B700022004C08F0390938CC000F30CC05013088
:100B8000CE009030CD000230D6008030D5009D27B9
:100B900084312000D701D801D901DA01C330220005
:100BA000DD00F530DE003D30DF00E6018030E7009B
:100BB0003E30E800692D2200B82784310130D20090
:100BC0002C30D100A6278B3136238431DB01DC01A8
:100BD00033302200E300B330122E2200B8276430F5
:100BE000D100D2010130DA009030D9008B313623A8
:100BF0008431DB01DC019A302200E3001930122E2F
:100C00002200B82784310130D2009030D100A627CD
:100C10008B31362384316430DB00DC019A302200D2
:100C2000E3009930E4003E30E500692D211C212EBF
:100C3000200055085604031D2A2E57085804031D8A
:100C40002A2E200059085A04031D2A2E5B085C0432
:100C500003197D2E2100BD012300211021003D3507
:100C6000C52784313D354D3ECC2784313D35553E39
:100C7000860087011600010403196D2E3D35553E8F
:100C8000860087013D35553E840001308500403F98
:100C9000803F413F813F3830AB000630AC003830F8
:100CA000AD003D35553E8600403FA800413FA900BC
:100CB0002B2784312808AE002908AF002A08B0008D
:100CC000CF268431E6278431013087002B08C03FCE
:100CD0002C08C13F2D08C23F772E3D35553ECC270D
:100CE0008431E62784310030C03FC13FC23F043029
:100CF000BD0A3D020318B42E2C2E2100BC01230096
:100D00002114E8302100BA000330BB003C35A33E7B
:100D10008600013087003A08C03F3B08C13FE0270A
:100D200084314D3E860087013A08C03F3B08C13FF1
:100D30003C354D3ECC278431E0278431553E86003A
:100D40003A08C03F3B08C13F3C083C073C075D3EBA
:100D500086001230C03F0330C13F3D30C23F0430F7
:100D6000BC0A3C02031C7F2EF0302200CC057A30F6
:100D7000EA001230E900200049150330CB00CE2EE6
:100D800023002208FF3E031CCE2E84000C300402F8
:100D90000318CE2E98310435E53E8200792F2B08BA
:100DA000B1002C08B2002D08B3000310320D330D32
:100DB000B4003408031DDD2EEC2F2E08B1002F08DF
:100DC000B2003008B3000310320D330DB9003908FA
:100DD000031DEB2EEC2F39087B3EB4072D08B9001C
:100DE0003008B9068030B905FF30AC17AF17AE0533
:100DF000AF050730B001B501B601B701B8002B1C33
:100E0000032FD3278431AD36AC0CAB0CAE35AF0D10
:100E1000B00DB80BFF2E0930B8002B1C112FD327B3
:100E20008431AD36AC0CAB0CB736B60CB50CB80B88
:100E30000D2F3508A0003608A1003708A20034089D
:100E4000A3003908A4003B272008AB002108AC0010
:100E50002208AD0008002808A0002908A1008E3053
:100E6000A201A300A4013B272008A8002108A90093
:100E70002208AA00080023080319432F220821048E
:100E80002004031D4B2FA001A101A2010800A30A09
:100E9000A236A10CA00CFE3022050319592F472FB2
:100EA000A30AA00A0319A10A0319A20AA236A10CD7
:100EB000A00CFF3022050319662F502F02302302A9
:100EC000031C682FA303A035A10DA20DA11F5E2F47
:100ED000231CA113A3362308A700A601A5012508FA
:100EE000A0042608A1042708A2042408031DA217B1
:100EF00008002100A20122004C08AB27843103190D
:100F0000902F22004C0EAB27843103198A2F2235F3
:100F10004D3E8C2F2235553EBF2784319627843194
:100F20000430A20A2202031808007B2F84008501E6
:100F3000403F803F413F813F08000130D400F43002
:100F4000D3000330DC00E830DB0008000330DA00B7
:100F5000E830D90008000F392100A0000130A100BD
:100F6000220AB32FA135890BB22F210820050800D2
:100F70004C08F0390438CC000F30CC05080086004E
:100F8000013087002235553E08004D3E8600003076
:100F90008701C03FC13F0800860001308700003054
:100FA000C03FC13F08002E08B5072F08B63D3008E6
:100FB000B73D08002200DD01DE013F30DF00080000
:100FC000E830BA000330BB003C3508003D083D075F
:100FD0003D075D3E86000800AB01AC01AD01080095
:100FE0008A31B72A8A31BA2A8A31D02A8A31E42A48
:100FF0008A31F82AFE0012001E00FE0BFB2F00347F
:101000009031B8289031CD289031B8289031CD2832
:101010009031D3289031DF289031FC28913111296B
:10102000913128299131552991315C2991316A29D1
:1010300091317529913199299131A5299131B5299C
:101040009131D529640080010131890B23280034B6
:101050004B08031DCB034B08031D0800A03086007E
:1010600001308700AB308400003085002B30210038
:10107000D70016001A00D70B392810304220200064
:1010800049110800D600AB30A6002B30A700560847
:101090004928A900AA0127082A02031808002A08DB
:1010A0002607A800860087010108A40029082A074E
:1010B0005C208831AA0A4B28A500A0007030A1014D
:1010C000A1072408A200642800308B1B0130A30074
:1010D00021083100920021002008310091002100F8
:1010E000220831009300151715158B135530960003
:1010F000AA309600951495187B2815112100230C11
:10110000031C8B1303188B1708002000491A0800D2
:1011100022006A086D02031D8F2869086C020318FB
:101120009528EC0A0319ED0AF328EC01ED01E528F6
:101130002200EB0A0B306B02031CA0280130EB00ED
:1011400086218831F3282200EB0A4B306B0203180A
:10115000EB01DF218831F3282200EB0A11306B020A
:101160000318EB019031B7208831F3282200EB0AF5
:1011700005306B020318EB01B6228831F3282000FA
:10118000BF0122004C085F2388310319DE2801309B
:10119000B9003F0ACC28B935890BCB2822004C0E68
:1011A0000F392000BA003908BA06BA0E22004C08DE
:1011B00020003A060F393A062200CC002000043005
:1011C000BF0A3F020318F328C12823002208FF3E6C
:1011D000031CF32884000B3004020318F328993110
:1011E0000435543E82002000BF0122004C085F23DA
:1011F0008831031929291524883125238831E823CA
:1012000088313F083F073F079A239331582388319D
:10121000F7238831312188312D08BE002C08BD000C
:1012200022004C0E5F23883103191F293F354D3EA4
:10123000D82388313907BB003E083A3D27293F357E
:10124000553ED82388313902BB003E083A3BBA23C9
:1012500088310430BF0A3F02031CF5289331F32381
:101260000800F02388310310310D320DB800380822
:10127000031D3F29AC01AD01AE01AF010800F02311
:1012800088311730B236B10CB00C890B42293008C6
:10129000B300AD17AE012C08B4002D08B5002E0820
:1012A000B6008E30B701B802B81F62293808803AFC
:1012B0008F3E031C3A29B736B60CB50CB40CB80FE8
:1012C0005B296F291830380203183A2938080319A6
:1012D0006F29B435B50DB60DB70DB80366293308BF
:1012E00003197D29B409B509B609B709B40A031968
:1012F000B50A0319B60A0319B70A3708AF0036084A
:10130000AE003508AD003408AC000800F030CC0564
:10131000FA302000D900DA01D32936238831E123BD
:10132000E900080036238831C830DB00DC012330B7
:10133000052C362388310130DC002C30DB001E30D8
:10134000052C01302000B0238831F4309E2936234B
:101350008831FA30DB00DC019F2936238831DB013C
:10136000DC01FA30052C362388311B24883197297B
:1013700001302000B02388319030DB001430052C80
:1013800036238831FA30C72936238831C830DB004C
:10139000DC01BE293623DB01DC0109302200EA0032
:1013A000C430E900080022006B0884000B300402FE
:1013B00003180800993104356A3E8200080036237C
:1013C0008831A82A95238831732388313330E3008C
:1013D000B330E4003F30E500E6019030E7003F30F5
:1013E000E8005030972A8C238831D430D100D201C4
:1013F000F030D900DA012000DB01DC0184238831E0
:1014000014307E2A8C238831F030D100D201013093
:10141000DA002830D90010302000DB00DC01842302
:1014200088312830972A8C2388310130D200283027
:10143000D1000130DA00EC30D9002000DB01DC0102
:10144000842388318C30972AF030CC05013020007D
:10145000DA00EC30D900FA30DB00DC010A307E2AF9
:10146000F030CC05C8302000D900DA0164302C2AD5
:10147000F030CC0564302000D900DA01DB012D2AE0
:10148000F030CC0532302000D900DA014C30DB00DE
:10149000DC01002AF030CC052000D9013D2AC4230C
:1014A00088310130DA002C30D900D301D401643006
:1014B000DB00DC01E3012030E4004030E500E60120
:1014C000A030EE29F030CC050130EA00F430A52A36
:1014D000F030CC050530EA00DC30A52AF030CC0530
:1014E0000A30EA00BE30A52AF030CC05B430200026
:1014F000D900DA019630DB00DC011E302200972A89
:101500004A2AC4238831B430D900DA01D301D40186
:101510009630DB00DC01CD30E3004C30E4003F309E
:10152000E500E601C030E7003F30E8006430E90044
:10153000EA01B32AF030CC050230EA005830A52A7F
:10154000F030CC050330EA00E830E900B32A622A23
:1015500022006B0884004B3004020318B32A983130
:101560000435003E8200923160220800142B3C2397
:101570008831102B4C08F0390338CC004C080F3957
:10158000303809248831A5238831033020006C23AA
:101590008831CD302200DD004C30CE2388311E2B27
:1015A0000F30CC044C080F398038CC00CD01CE016F
:1015B000A523883158238831FE2388313330DD005C
:1015C000B330CE238831F12A952388314C080F3966
:1015D0004038CC0058238831FE23883136238831A7
:1015E00022000F2488318030E7003D30E8001E2BB8
:1015F0004C08F0390138CC004C080F391038CC00B9
:10160000CD01CE010230D600BC30D5002000D7017C
:10161000D80103306C23883133302200DD00B33031
:10162000DE003E30DF001E2B6B0884000530040214
:1016300003181E2B87310435F03E82000730EA0084
:10164000D030E9009231602208007808F000790873
:10165000F1008E30F201F300F4019331B5237008EC
:10166000F8007108F9007208FA0008002000D5019E
:10167000D601D701D80108004C08F0390138CC0058
:101680000F30CC050130CE002C30CD000230D6001A
:10169000BC30D5002000D701D8010330DA00E83093
:1016A000D9006430DB00DC01CD302200DD004C3499
:1016B000D101D2010330DA00E830D90008000F3937
:1016C0002000B9000130BA003F0A672BBA35890BF8
:1016D000662B3A0839050800DA00E830D900643092
:1016E000DB00DC0108004C080F394038CC006430C6
:1016F000D100D201D430D900DA010A30D300D401AC
:101700006430DB00DC01080033302200E300B3303A
:10171000E4003F30E50008004C08F0390438CC0004
:101720004C080F394038CC0008004C08F0390C3810
:10173000CC0008005D3E860001308700403FA000DD
:10174000413FA100423FA20008000230D600BC3059
:10175000D500CF01D0010230D800BC30D70008003E
:10176000D600C230D5000130D800C230D7000130D9
:10177000DC000800BC003F35553E860087013B0871
:10178000C03F3C08C13F08004C08F0390C38CC0081
:101790000F30CC056430D100D2010800DE003E30AD
:1017A000DF003330E000B330E1003E30E2000800FB
:1017B000860001308700403FB900413FBA003D0834
:1017C0000800C830DB00DC0101302200EA00F434FC
:1017D00078082000A3007908A4007A08A500080072
:1017E0002C08B0002D08B1002E08B2000800200817
:1017F000AC002108AD002208AE0008006430D30020
:10180000D401E130DB00DC0108002200E900EA013C
:101810000800CC000130CE002C30CD000800E301E0
:10182000E4013F30E500E601080022006D08F90000
:101830006C08F80008000130DC002C30DB000800E8
:101840008030840099308500DB30860000308700CE
:1018500007308731FA278C31203084009930850099
:10186000CB308600013087001D308731FA278C315C
:1018700040308400003085001D30883122208C31BA
:1018800021004C30E2018400013085002230883193
:1018900022208C31A0308400013085002B3088312B
:1018A00022208C3120308400023085003030883195
:1018B00022208C31A0308400023085003030883105
:1018C00022208C317E102000652C903104208C3138
:1018D0009F310F278C318B170B17843139248C31B2
:1018E000EF278C31A6278C31A8278C31640020008B
:1018F0000C198A2C22008E1C8A2C2100E201053052
:101900002100DA002630890B832CDA0B832C0000AF
:1019100022008E1020000C1D9A2C22008E189A2C6A
:101920008530890B912C000022008E14B7248C3155
:101930002100E2012000C91C762CC910491CA42CEE
:10194000963158268C31B02C2300201CB02C20005E
:10195000C91DAD2CF9278C31B02C943175248C31F4
:101960002000491D762C883128208C31762C2000CF
:1019700049180800683024002006031D0800232FA2
:101980002000C9190800E1278C312E278C31003A3C
:10199000031D0800C0278C31031DDF2C23002010FD
:1019A000211CDC2C2208031DD82C4D278C31E32C64
:1019B000853120258C31E32C41278C31E32C220BFF
:1019C000E32C23002014D4279731B22F23002018B2
:1019D0000800E1278C312E278C31003A031D0800C6
:1019E000C0278C31031DF92C2300211041278C3195
:1019F000E32C220BE32C230021142208031D032DCA
:101A00004D278C31E32C853120258C31E32C2300AC
:101A1000211820180800A2010B302100A00020305E
:101A20002E278C31003A031D0800CF014F35233E8D
:101A30008600023087004F35CE278C31C90001085F
:101A4000C80003304902E930031948020318392D50
:101A50004F35A33E8600013087004808C03F490843
:101A6000C13F4F354D3E860087014808C03F4908B9
:101A7000C13F0430CF0A4F02031C162D200049122B
:101A8000C91249150330CB00080021082206031DA6
:101A90004B2D01304C2D00302100BE00BF01240031
:101AA00020062100C0003F08C1004008410403197E
:101AB0000800E42C0430220203180800E1278C31CE
:101AC0002E278C31003A031D080024002208210033
:101AD000C300CB014308BE00AB30BE35BE353E0768
:101AE000BF004B083F07C0008600013087000A3066
:101AF000A000A1014B35553E84008501003FA200A6
:101B0000013FA3005F278C31200881000430CB0AFD
:101B10004B02031C6A2DE32C2000C9190800133066
:101B20002100A00020302E278C31003A031D080030
:101B30001030C400CA0144084A020318E32C4A08C2
:101B4000BB3E8600013087004A08CE278C318100D9
:101B5000CA0A9B2D2300211C0800EB278C312E275D
:101B60008C31003A031D08000430240022020318BF
:101B7000080022082100CD004D35A33EB5278C3149
:101B80003E07C0003F0803183F0AC100033041026E
:101B9000E830031940020318E22D4D35A33E8600BC
:101BA00024002308810741310318810A21004D35A3
:101BB000A33E8600013087004D354D3E8731962784
:101BC0008C31302EDB278C31A33E8600013087001C
:101BD0003E08C03F3F08C13FDB278C314D3E8600A9
:101BE00087013E08C03F3F08C13F302E2300211C23
:101BF0000800EB278C312E278C31003A031D08009A
:101C00000430240022020318080022082100CE001C
:101C10004E35A33EB5278C31C000C1013F084102BB
:101C2000031D142E3E0840020318242EC8278C31B1
:101C300024002308E5278C312100C8274E354D3E6E
:101C4000873196278C31302E4E35A33E86000130E9
:101C500087000030C03FC13F4E358731C5278C31EA
:101C600020004912C916412DE1278C312E278C31D5
:101C7000003A031D08000C30240022060319482EE8
:101C80002300211C512E0D30240022020318512E56
:101C900022082300A200853120258C31D4279731DA
:101CA000B22F0D3024002206031D08002300211C42
:101CB000080022080319080003102000491E03141D
:101CC000031C652E20004916080020004912080058
:101CD0002300201C08000B302100C500A00020308C
:101CE0002E278C31003A031D0800CC0104304C0231
:101CF0000318962E4C35233E8600023087004C3563
:101D0000CE278C31C7000108C60003304702E930F6
:101D1000031946020318942E4C35553E8600870160
:101D20004608C03F4708C13FCC0A762E963196261A
:101D300020004912C912C9150330CC0008000C302C
:101D40002206031DA52E0130A62E0030AA278C31B5
:101D50000319080020004912C912C911CC0108005A
:101D60000D302206031DB62E0130B72E0030AA27F3
:101D70008C31031908009E315F2E0A302100A0002B
:101D800020302E278C31003A031D08008B132400CD
:101D900022082000C000240023082000C1002400E5
:101DA00024082000C200240025082000C3002400CD
:101DB00026082000C400240027082000C5002400B5
:101DC00028082000C6008B17E42C0F302206031DC4
:101DD000EB2E0130EC2E0030AA278C3103190800BD
:101DE000200049140330CA000800EB278C312E274D
:101DF0008C31003A031D08001F3031009200FF3083
:101E000091009430950055309600AA3096009514B4
:101E100000000000310095180A2F1511053021002F
:101E2000A100203084278C3102302100BF00F33024
:101E3000BE00B030890B1A2FBE0B1A2FBF0B1A2F02
:101E4000000001000800210884001030040203187B
:101E5000080099310435003E82000800A400A20168
:101E6000A3012008230203183F2F23082407A10001
:101E70008600023087000108A206A30A312F22083B
:101E800008002100A00120358731C5278C3104309E
:101E9000A00A200203180800432F2100A0012035CA
:101EA000A33E86000130870020354D3E87319627BE
:101EB0008C310430A00A2002031808004F2FA5011E
:101EC000A6012008210403197F2FA401A40AA11B45
:101ED0006C2FA035A10D662FA535A60D2108230274
:101EE000031D742F20082202031C7B2F2008A2024E
:101EF0002108A33B2514A136A00CA40B6C2F2608A7
:101F0000A1002508A0000800A30022008E100530C3
:101F10002100A2002630890B8B2FA20B8B2F0000F3
:101F20002100A103210A0319A02F230886000230F3
:101F3000870001089F31D7278C312100A30A902FF9
:101F400023009E1CA02F22008E1408009717080063
:101F50001F1508002100BE006830BF013E06C0000A
:101F60003F08C10040084104080086000130870096
:101F7000403FBE00413FBF0024002308210008006D
:101F80000C30230022060319A201240022080800B5
:101F90004E35A33E8600013087000800223E8400B3
:101FA000023085000008080020004912C9124915B6
:101FB0000330CB000800E830BE000330BF004D35D1
:101FC000080004302100A000203481024131031CAC
:101FD00081037F31080005302100A000203420005B
:101FE000C601C501C401C3010130C200C100C00166
:101FF00008004C08031DCC034C080319C911080044
:10200000FF3FFF3FFF3FFF3F1F20903115209031E2
:10201000632090316D209031812090317620903175
:102020008C209031A62090319628603032009900A3
:102030009B0148309D0006309F009E010800220051
:102040008C01D0308D008E01373021008C008D0145
:1020500005308E0023008E018D018C0124008D013E
:1020600006308C008E0125008C018D018E01003020
:102070008B1B01302100A0008B13B12090310F1079
:102080002408E0391238A4003D001C08E039143857
:102090009C002408E0390D38A4002308E0390E38EC
:1020A000A3002608E0390F38A6002508E0390C38CF
:1020B000A500B12090310F142100201C61288B173E
:1020C00008008B1308009F302500930092019101B6
:1020D0001F08FC3901389F0008009F3097009601C7
:1020E00095011F08F33904389F0008009F3026002F
:1020F00093009201910125001F08CF3910389F00ED
:1021000008009F30260097009601950125001F08C2
:102110003F3940389F000800783020009F00F93098
:102120009E009D019110210091140800911211123E
:10213000083023009F0090309D0024309E00A03086
:102140009B0001309C00210091160800200097019F
:10215000D7309800FF30960095019012210090161C
:10216000080055303C008F00AA308F000800F42989
:102170000F30CC044C080F396038002290313422E3
:102180009031222290319A30E6009930E7003E30BB
:10219000E8000330EA00E830B3290F30CC044C08E3
:1021A0000F399038BD280F303922903100229031FC
:1021B0000130D400F430D30022229031F9284C08A9
:1021C000F0390A38CC000F30CC051B229031D301F6
:1021D000D4010130DC00F430DB002000D501D60151
:1021E0000330DA00E830D9002200E001E1013F309D
:1021F000E200E601E701F2298731B8279031FA3091
:10220000D100D2018731A62790318B31362390310E
:10221000DB01DC012200E3014030E4003F30E50057
:10222000C9284C08F03908384D22D301D4010130B7
:10223000DC00C230DB008B3136239031FA30D9001C
:10224000DA012200E6014030E700E8009630672915
:102250003E2290317038CC000130CE00B830CD0035
:102260000130D600F430D5000130D000B830CF00B6
:102270000130D800F430D7000130D200B830D1009E
:102280000130DA00F430452290318030DE004030F9
:10229000DF00E0018030E1004030E200E301803007
:1022A000E4004030E5000F3066294C08F03907386B
:1022B000CC000F30CC052C29F030CC058B313623E7
:1022C0009031D901DA01DB01DC011E302200E90086
:1022D000EA01FE29F030CC058B3136239031D9014B
:1022E000DA018C311B24903165293E2270388C3103
:1022F000092490310130D6006830D5000130D0007B
:102300002C30CF000130D8006830D7000130D20027
:102310002C30D1000130DA00683045229031DE01E6
:102320004030DF00E001E101E200E301E401E5000B
:102330006529F030CC058B3136239031FA30D90045
:10234000DA016430DB00DC015329F030CC058B313D
:1023500036239031FA30D900DA01DB01DC010B3091
:102360002200EA00B830E900FE2953229031D0382B
:10237000CC0014229031FA30D1005A229031D3018E
:10238000D401FA30DB00DC012000D701D8012200A3
:10239000DD018030DE003F30DF00E3018030E4000B
:1023A0003E30E500E6018030C6288B319523903120
:1023B0004C080F398038CC00D1015A22FA30D300B2
:1023C000D4010330DC00E830DB0003302000D6000D
:1023D000E830D500D701D80122008C310F2490318C
:1023E0004030E7003F30C8286B08840011300402F9
:1023F0000318FE2988310435003E8200602208005F
:10240000CC00CD01CE010330D600E830D500CF019D
:10241000D0010130D800F430D700D101D20103300F
:10242000DA00E830D9000800CD01CE010330D60033
:10243000E830D5000800CF01D0010130D800F430D9
:10244000D70008000330DC00E830DB00DD0180301D
:10245000DE003F30DF00E001E101E200E301803017
:10246000E4003F30E50008000230D400BC30D30067
:102470000800CC044C080F39603808004C08F039CB
:102480000738CC004C080F390800D900FA3020007A
:10249000DB00DC012200DD010800CC004C080F3914
:1024A0008038CC0008004C08F0390D38CC004C08BE
:1024B0000F390800D2010130DA00F430D9000800E9
:1024C000F2014C087A2290310319742A4C0E7A22B8
:1024D000903103196E2A72354D3E702A7235553E81
:1024E00086228731962790310430F20A720203184F
:1024F0000800612A0F39F0000130F100720A812AC8
:10250000F135890B802A71087005080086000130BA
:1025100087007235553E08002000C91E922AF80136
:10252000F80A942A0430F800F901E5229231403F7C
:10253000F400413FF5007306031DA02A72087406DB
:102540000319CC2AE5229231D32292310318AF2A03
:10255000F1229231810741310318810ACC2A793561
:10256000553E86008701403FF200413FF300793538
:102570004D3E8600D32292310318C32AF1228F31B7
:10258000E5279231CC2A79354D3E86008701793591
:10259000553E8731962792310430F90A7902031C9F
:1025A000952AF3230800403FF400413FF5007808E6
:1025B0007407F60075080318750AF70073087702A8
:1025C000031D080072087602080079354D3E86002A
:1025D0008701403FF200413FF3007935553E8600C8
:1025E00008007935553E86008701780808002200EA
:1025F000EC0A0319ED0A2000BF018C311524923139
:102600008B31252392318B31E82392313F083F07EC
:102610003F078B319A23923158238B31F723923124
:102620008931312192312D08BE002C08BD002300D4
:10263000211C242B20003F354D3E4D24923139077B
:10264000BB003E083A3D2D2B20003F35553E4D2422
:1026500092313902BB003E083A3B432492310430A8
:10266000BF0A3F02031CFD2A22006A086D02031DF7
:102670003B2B69086C02031C562BEC01ED01F0307A
:10268000CC052300A201200049150330CB00BF0177
:102690003F354D3E860087013F35553E87319627B1
:1026A00092310430BF0A3F02031C482BF323080079
:1026B0002008FB002108FC002208FD0003107C0D0F
:1026C0007D0DA6002608031D662B712C2308FB0038
:1026D0002408FC002508FD0003107C0D7D0DAB00D7
:1026E0002B08031D742B712C2B087B3EA607220898
:1026F000AB002508AB068030AB05FF30A117A4174F
:10270000A305A4050730A501A701A801A901AA00F6
:10271000201C8C2B56249231A236A10CA00CA33580
:10272000A40DA50DAA0B882B0930AA00201C9A2BFA
:1027300056249231A236A10CA00CA936A80CA70CE5
:10274000AA0B962B2708F0002808F1002908F200B0
:102750002608F3002B08F400B52370082000A00021
:102760007108A1007208A200080073080319BD2BAC
:10277000720871047004031DC52BF001F101F20110
:102780000800F30AF236F10CF00CFE307205031962
:10279000D32BC12BF30AF00A0319F10A0319F20A29
:1027A000F236F10CF00CFF3072050319E02BCA2B46
:1027B00002307302031CE22BF303F035F10DF20D2E
:1027C000F11FD82B731CF113F3367308F700F601D1
:1027D000F5017508F0047608F1047708F20474082E
:1027E000031DF217080020005608F1005508F000FC
:1027F0000F24923120005808F1005708F0001C24E3
:10280000923120005A08F1005908F0002924923131
:1028100020005C08F1005B08F00036240800FF305F
:10282000F0050330F1052500131E1B2C0630F03592
:10283000F10D890B172C622CFF30F0050330F105E8
:102840002500171E282C0630F035F10D890B242C9D
:102850006C2CFF30F0050330F1052600131E352CDB
:102860000630F035F10D890B312C672CFF30F00567
:102870000330F1052600171E422C0630F035F10D0D
:10288000890B3E2C5D2CBC003F35553E86008701F0
:102890003B08C03F3C08C13F08008600013087006C
:1028A000403FB900413FBA003D0808002308A70790
:1028B0002408A83D2508A93D080071089600700865
:1028C00095000800710892007008910008007108D6
:1028D0009200700891000800710896007008950039
:1028E0000800A001A101A201080044085527943165
:1028F000DF25943121082200C40021002008220095
:10290000C300200045082200C3070318C40A2000A2
:1029100046082200BB0023003B0855279431DF25E1
:10292000943121082200B100210020082200B000CB
:1029300023003C082200B0070318B10A23003E0818
:102940002100B900BA0123003D0855279431DF2545
:1029500094315C279431B20021003C082200B3007E
:10296000230044082100B900BA0123004308552779
:102970009431DF2594315C279431B40021003C0868
:102980002200B500230046082100B900BA01230047
:10299000450855279431DF2594315C279431B600E2
:1029A00021003C082200B700C8014808203E8600EC
:1029B000013087004808C73EFA2794314808043E92
:1029C00081279431083E812794310C3E203E8600B9
:1029D0004808C73E8400000881000430C80A480245
:1029E000031CD52CC8014808013EC0000330C005B7
:1029F0004835303E860001308700403FC500413FEA
:102A0000C6004035303E8600403FC100413FC20015
:102A100046084202031D0E2D450841024608031CCC
:102A20002C2D4402031D162D45084302031CD92DED
:102A300042084402031D1E2D410843020318D92DEC
:102A40004208A3279431450843022100A000220038
:102A50004608443B2100582D4402031D312D4508F2
:102A60004302420803183C2D4402031D392D41083E
:102A700043020318D92D4208A3279431A030B90787
:102A80000530BA3D46084402031D482D450843025F
:102A900045080318242D43022100B90022004608EE
:102AA000443B2100BA003908A03EA00005303A3D61
:102AB000A1003C30A201A301A400A501A601A70129
:102AC000F425943123082200BF00210022082200AF
:102AD000BE00210021082200BD00210020082200A4
:102AE000BC003B08BC0701300318BD070318BE0734
:102AF0000318BF07C7014008FD2694310130870045
:102B0000220048083727943101308500000801026F
:102B1000031CAC2D22004008FD26943122004808F9
:102B20003727943131279431FD269431AB279431E6
:102B3000DF25943145279431DF2594310B279431DB
:102B4000F42594318A279431192694312C083C07B6
:102B5000C2002D083D3DD12D22004808FD269431AC
:102B6000013087002200400837279431013085006A
:102B700031279431FD269431AB279431DF259431F0
:102B800045279431DF2594310B279431F425943176
:102B90008A279431192694312C083C02C2002D0852
:102BA0003D3B6527943122000430C70A4702031CCD
:102BB0007B2D0430C80A4802031CF32C962EA40176
:102BC000A501201CE72D2208A4072308A53DA23556
:102BD000A30DA136A00C20082104031DE12D25081A
:102BE000A1002408A0000800A801A901AA01AB01C6
:102BF000201C022E2408A8072508A93D2608AA3D66
:102C00002708AB3DA435A50DA60DA70DA336A20C34
:102C1000A10CA00C2308220421042004031DF82D7C
:102C20002B08A3002A08A2002908A1002808A00058
:102C30000800B401B501B601B7012F082E042D0418
:102C40002C0403194F2EB801B80AAF1B2C2EAC353B
:102C5000AD0DAE0DAF0D242EB435B50DB60DB70DBF
:102C60002F083302031D3E2E2E083202031D3E2E76
:102C70002D083102031D3E2E2C083002031C492E64
:102C80002C08B0022D08B13B2E08B23B2F08B33BF5
:102C90003414AF36AE0CAD0CAC0CB80B2C2E370880
:102CA000AF003608AE003508AD003408AC000800AF
:102CB00047080319652EC701682620004A08031D2E
:102CC000CA034A08031949100800C701C70A7B2E26
:102CD0002100A001A101BD2694312100A001A10184
:102CE000CD2694312100A001A101DD2694312100DF
:102CF000A001A101ED2EE8302100A0000330A100C9
:102D0000BD269431E8302100A0000330A100CD267B
:102D10009431E8302100A0000330A100DD26943179
:102D2000E8302100A0000330A100ED2E200056085D
:102D30002100A100200055082100A000BD269431EB
:102D4000200058082100A100200057082100A00001
:102D5000CD26943120005A082100A10020005908F6
:102D60002100A000DD26943120005C082100A10094
:102D700020005B082100A000ED2EFF30A0050330ED
:102D8000A1052500131ECB2E06302100A035A10D74
:102D9000890BC62E932F2100932FFF30A0050330FF
:102DA000A1052500171EDB2E06302100A035A10D40
:102DB000890BD62E712F2100712FFF30A005033013
:102DC000A1052600131EEB2E06302100A035A10D13
:102DD000890BE62E792F2100792FFF30A0050330D3
:102DE000A1052600171EFB2E06302100A035A10DDF
:102DF000890BF62E9B2F21009B2F2100B90020303C
:102E0000B935B9353907BA002200470821003A0719
:102E1000BB00860008002008BE002108BF00C001DA
:102E2000C1014108AF004008AE003F08AD003E08B8
:102E3000AC00220038082100A000A101A201A301DA
:102E400022003F082100A70022003E082100A60022
:102E500022003D082100A50022003C082100A4001A
:102E60000800000801022200B800480808002100FC
:102E7000BC002030BC35BC353C07BD0022004708F3
:102E800021003D07BE00840008002008BC00210886
:102E9000BD000630A200A30122003A082100A100D3
:102EA000220039082100A00008002100A0003C30C9
:102EB000A101A200A301080039082007BB003A08BD
:102EC000213DBC003B0822000800C300220047351A
:102ED000553E8600870121004208C03F4308C13F9C
:102EE00008002108250096002100200825009500F3
:102EF00008002108260092002100200826009100E9
:102F00000800203E86004808BF3E8400000881007B
:102F1000480808002308B3002208B2002108B100C5
:102F20002008B00008002108250092002100200898
:102F300025009100080021082600960021002008A5
:102F4000260095000800BA004108B9004508B902FA
:102F50004608BA3B08000108A0000A30A101A200FF
:102F6000A301080068302500A0000530A100003052
:102F70002300201801302500A2002300201CD32F9D
:102F800010302100A600A701260827020318E62F0B
:102F90002708A33E8600023087002708BB3EFA2799
:102FA0009431A70AC42F1A302100A600A7012608D1
:102FB00027020318E62F2708A33E86000230870069
:102FC0002708A13EFA279431A70AD72F2608033EE7
:102FD000A000A0308F312E27A5002608A33E860032
:102FE00002308700250881002608043EA100A03099
:102FF0008F31842F84000130850000088100080093
:103000008931E2298931F3298A31022A8A31132A46
:103010008A31242A8A31302A8A31382A8A31402A50
:103020008A314A2A8A314F2A8A31622A8A31742A9D
:103030008A31802A8A31812A8A319A2A8931E22981
:103040008931F3298A31022A8A31132A8A31242AC2
:103050008A31302A8A31382A8A31402A8A314A2AEA
:103060008A314F2A8A31622A8A31742A8A31802A27
:103070008A31812A8A31A02A8931E2298931F329CA
:103080008A31022A8A31132A8A31242A8A31302A43
:103090008A31382A8A31402A8A314A2A8A314F2A8B
:1030A0008A316E2A8A31742A8A31802A8A31812AA9
:1030B0008A319A2A8931E2298931F3298A31022A0F
:1030C0008A31132A8A31242A8A31302A8A31382ACD
:1030D0008A31402A8A314A2A8A314F2A8A31682A1B
:1030E0008A31742A8A31802A8A31812A8A319A2A3D
:1030F0008931E2298931F3298A31022A8A31132A56
:103100008A31242A8A31302A8A31382A8A31402A5F
:103110008A314A2A8A314F2A8A31682A8A31742AA6
:103120008A31802A8A31812A8A31A72A413454344B
:103130002B344134443456345F344D3446345234A5
:103140005F345334503443343D34333430343334C7
:10315000313433343434333431343334303433343D
:10316000313433343034333432340D340A340034AF
:10317000413454342B344134443456345F344D3468
:10318000463452345F345334503443343D343F3446
:103190000D340A340034413454342B344D344F341C
:1031A000443445343D3444344134543441340D3492
:1031B0000A340034413454342B34533445345434B9
:1031C0003D3431340D340A3400348531272D8531B6
:1031D000342D85314A2D8531622D85316E2D853115
:1031E000832D8531A02D8531B82D8531DB2D85319D
:1031F000ED2D8631002E8631162EFF3FFF3FFF3F1B
:103200008E31F52E8F312D2F8C31C02C8C31E62C48
:103210008D31072D8D31452D8D315A2D8D318C2DD0
:103220008D31AA2D8D31F62D8E31342E8E31682EB2
:103230008E319F2E8E31B02E8E31BD2E8E31E52EE9
:10324000333430343334313433343434333431344C
:10325000333430343334313433343034333432343F
:1032600000341F341C341F341E341F341E341F34EA
:103270001F341E341F341E341F3423001D194229ED
:103280009D1C44299D139D1721006208203E860045
:10329000023087002300190881002100E20A303043
:1032A00062020318E2010800883198288831A328B7
:1032B0008831AC288831B6288831BF288831BF28AA
:1032C0008831BF288831BF288831BF288831BF287E
:1032D0008831BF2889318D298931922989319929ED
:1032E0008931A1298931A7298931AD298931B329AA
:1032F0008931B8298931C0298931C4298931CA293C
:10330000413454342B344F344B340D340A34FF3FA2
:103CB000FF3FFF3FFF3FFF3FFF3FFF3FFF3F07301B
:103CC000A50068302500A0000D30A1002100A6014C
:103CD000250826020318792E2608A23E8600023007
:103CE00087002608403E8400850100088100A60A5E
:103CF000682E2508023EA000A0308F312E27250017
:103D0000A90021002508033EA100A0308F31842F97
:103D1000C60A3C304602031CCC2EC601C50A3C3004
:103D20004502031CCC2EC501C40A18304402031CF2
:103D3000CC2EC401C20AC30A073043020318C301D0
:103D40004008F500D030F601F5070730F63DCE26E5
:103D50009E31003A0319AE2E1D30AF2E1C302300C9
:103D6000DD000D30200041020318CC2E410803195C
:103D7000CC2E4108DB3E860001308700420801025C
:103D80000318CC2E0130C200C10A0D304102031CC1
:103D9000CC2E0130C100C00AC914080075080339CF
:103DA000031900346430F000F1010A279E31EA263D
:103DB0009E3170087104031D01349030F000013011
:103DC000F1000A279E31EA269E317008710403191A
:103DD00001340034700871040319052FF401F40A4A
:103DE000F11BF52EF035F10DEF2E71087302031D56
:103DF000FB2E70087202031C012F7008F20271087A
:103E0000F33BF136F00CF40BF52E7308F100720859
:103E1000F00008007608F3007508F20008002200A0
:103E20008E108D1268302100C100E430890B162FEE
:103E3000C10B162F000022008D1605302100C20094
:103E4000DF30C100BB30890B232FC10B232FC20BE6
:103E5000232F0032A4279F31003A031D3F2F6830E3
:103E60002100C100E430890B332FC10B332F000038
:103E700096302100A1009830A2006B279F31683056
:103E80002100C100E430890B432FC10B432F0000F8
:103E9000DA302100A1009830A2006B279F316830F2
:103EA0002100C100E430890B532FC10B532F0000B8
:103EB000CB302100A1009830A2006B279F316830E1
:103EC0002100C100E430890B632FC10B632F000078
:103ED00022008E140800DB30860000308700A430FA
:103EE0008400003085000730A30016001A00A30BE1
:103EF000752FAC0123001908210021088400220835
:103F00008500120003199F2F2108840022088500D4
:103F10000008D7279F312100A10A0319A20A7C2F8C
:103F2000CD279F312100AB002C08A43E86008701DD
:103F300001082B06031D9E2FAC0A9F2FAC010730F2
:103F40002C0203180800902FCB3086000130870028
:103F5000AE3084000030850011302100AD00160025
:103F60001A00AD0BAF2FB830C001A1009830A200ED
:103F70006B279F31113040020318C72FCD279F3187
:103F80002100BF002E06031D0034C00ABA2FCD2722
:103F90009F310A3A03190134C72F2000911ECD2FFB
:103FA00023009D1CD52F1D121D1619080800A00006
:103FB0002000111ED82F2100200823009A0008009D
:00000001FF
